{
    "_format": "hh-sol-artifact-1",
    "contractName": "Bank",
    "sourceName": "contracts/BankContract.sol",
    "abi": [
        {
            "inputs": [],
            "stateMutability": "nonpayable",
            "type": "constructor"
        },
        {
            "inputs": [],
            "name": "bankName",
            "outputs": [
                {
                    "internalType": "string",
                    "name": "",
                    "type": "string"
                }
            ],
            "stateMutability": "view",
            "type": "function"
        },
        {
            "inputs": [],
            "name": "bankOwner",
            "outputs": [
                {
                    "internalType": "address",
                    "name": "",
                    "type": "address"
                }
            ],
            "stateMutability": "view",
            "type": "function"
        },
        {
            "inputs": [
                {
                    "internalType": "address",
                    "name": "",
                    "type": "address"
                }
            ],
            "name": "customerBalance",
            "outputs": [
                {
                    "internalType": "uint256",
                    "name": "",
                    "type": "uint256"
                }
            ],
            "stateMutability": "view",
            "type": "function"
        },
        {
            "inputs": [],
            "name": "depositMoney",
            "outputs": [],
            "stateMutability": "payable",
            "type": "function"
        },
        {
            "inputs": [],
            "name": "getBankBalance",
            "outputs": [
                {
                    "internalType": "uint256",
                    "name": "",
                    "type": "uint256"
                }
            ],
            "stateMutability": "view",
            "type": "function"
        },
        {
            "inputs": [],
            "name": "getCustomerBalance",
            "outputs": [
                {
                    "internalType": "uint256",
                    "name": "",
                    "type": "uint256"
                }
            ],
            "stateMutability": "view",
            "type": "function"
        },
        {
            "inputs": [
                {
                    "internalType": "string",
                    "name": "_name",
                    "type": "string"
                }
            ],
            "name": "setName",
            "outputs": [],
            "stateMutability": "nonpayable",
            "type": "function"
        },
        {
            "inputs": [
                {
                    "internalType": "address payable",
                    "name": "_to",
                    "type": "address"
                },
                {
                    "internalType": "uint256",
                    "name": "_total",
                    "type": "uint256"
                }
            ],
            "name": "withDrawMoney",
            "outputs": [],
            "stateMutability": "nonpayable",
            "type": "function"
        }
    ],
    "bytecode": "0x608060405234801561001057600080fd5b50336000806101000a81548173ffffffffffffffffffffffffffffffffffffffff021916908373ffffffffffffffffffffffffffffffffffffffff160217905550610e5b806100606000396000f3fe60806040526004361061007b5760003560e01c8063a853409a1161004e578063a853409a1461011d578063b39d7b7c14610148578063c47f002714610171578063e147aaa71461019a5761007b565b806316c05aa21461008057806327d358011461008a57806337ebe47b146100b55780637b83b50b146100f2575b600080fd5b6100886101c5565b005b34801561009657600080fd5b5061009f610261565b6040516100ac9190610a9c565b60405180910390f35b3480156100c157600080fd5b506100dc60048036038101906100d791906107ac565b6102ef565b6040516100e99190610b5e565b60405180910390f35b3480156100fe57600080fd5b50610107610307565b6040516101149190610b5e565b60405180910390f35b34801561012957600080fd5b5061013261039e565b60405161013f9190610b5e565b60405180910390f35b34801561015457600080fd5b5061016f600480360381019061016a91906107d5565b6103e5565b005b34801561017d57600080fd5b5061019860048036038101906101939190610811565b610596565b005b3480156101a657600080fd5b506101af61063e565b6040516101bc9190610a81565b60405180910390f35b6000341415610209576040517f08c379a000000000000000000000000000000000000000000000000000000000815260040161020090610b3e565b60405180910390fd5b34600260003373ffffffffffffffffffffffffffffffffffffffff1673ffffffffffffffffffffffffffffffffffffffff16815260200190815260200160002060008282546102589190610bf6565b92505081905550565b6001805461026e90610d10565b80601f016020809104026020016040519081016040528092919081815260200182805461029a90610d10565b80156102e75780601f106102bc576101008083540402835291602001916102e7565b820191906000526020600020905b8154815290600101906020018083116102ca57829003601f168201915b505050505081565b60026020528060005260406000206000915090505481565b60008060009054906101000a900473ffffffffffffffffffffffffffffffffffffffff1673ffffffffffffffffffffffffffffffffffffffff163373ffffffffffffffffffffffffffffffffffffffff1614610398576040517f08c379a000000000000000000000000000000000000000000000000000000000815260040161038f90610abe565b60405180910390fd5b47905090565b6000600260003373ffffffffffffffffffffffffffffffffffffffff1673ffffffffffffffffffffffffffffffffffffffff16815260200190815260200160002054905090565b60008054906101000a900473ffffffffffffffffffffffffffffffffffffffff1673ffffffffffffffffffffffffffffffffffffffff163373ffffffffffffffffffffffffffffffffffffffff1614610473576040517f08c379a000000000000000000000000000000000000000000000000000000000815260040161046a90610afe565b60405180910390fd5b600260003373ffffffffffffffffffffffffffffffffffffffff1673ffffffffffffffffffffffffffffffffffffffff168152602001908152602001600020548111156104f5576040517f08c379a00000000000000000000000000000000000000000000000000000000081526004016104ec90610ade565b60405180910390fd5b80600260003373ffffffffffffffffffffffffffffffffffffffff1673ffffffffffffffffffffffffffffffffffffffff16815260200190815260200160002060008282546105449190610c4c565b925050819055508173ffffffffffffffffffffffffffffffffffffffff166108fc829081150290604051600060405180830381858888f19350505050158015610591573d6000803e3d6000fd5b505050565b60008054906101000a900473ffffffffffffffffffffffffffffffffffffffff1673ffffffffffffffffffffffffffffffffffffffff163373ffffffffffffffffffffffffffffffffffffffff1614610624576040517f08c379a000000000000000000000000000000000000000000000000000000000815260040161061b90610b1e565b60405180910390fd5b806001908051906020019061063a929190610662565b5050565b60008054906101000a900473ffffffffffffffffffffffffffffffffffffffff1681565b82805461066e90610d10565b90600052602060002090601f01602090048101928261069057600085556106d7565b82601f106106a957805160ff19168380011785556106d7565b828001600101855582156106d7579182015b828111156106d65782518255916020019190600101906106bb565b5b5090506106e491906106e8565b5090565b5b808211156107015760008160009055506001016106e9565b5090565b600061071861071384610baa565b610b79565b90508281526020810184848401111561073057600080fd5b61073b848285610cce565b509392505050565b60008135905061075281610de0565b92915050565b60008135905061076781610df7565b92915050565b600082601f83011261077e57600080fd5b813561078e848260208601610705565b91505092915050565b6000813590506107a681610e0e565b92915050565b6000602082840312156107be57600080fd5b60006107cc84828501610743565b91505092915050565b600080604083850312156107e857600080fd5b60006107f685828601610758565b925050602061080785828601610797565b9150509250929050565b60006020828403121561082357600080fd5b600082013567ffffffffffffffff81111561083d57600080fd5b6108498482850161076d565b91505092915050565b61085b81610c80565b82525050565b600061086c82610bda565b6108768185610be5565b9350610886818560208601610cdd565b61088f81610dcf565b840191505092915050565b60006108a7602b83610be5565b91507f596f75206d75737420626520746865206f776e6572206f6620746f207365652060008301527f7468652062616c616e63650000000000000000000000000000000000000000006020830152604082019050919050565b600061090d601283610be5565b91507f496e73756666696369656e742066756e647300000000000000000000000000006000830152602082019050919050565b600061094d602783610be5565b91507f546f207769746864726177206d6f6e657920796f75206d75737420626520746860008301527f65206f776e6572000000000000000000000000000000000000000000000000006020830152604082019050919050565b60006109b3603b83610be5565b91507f596f75206d7573742074686520626520746865206f776e6572206f662074686560008301527f2062616e6b20746f2073657420746865206f776e6572206e616d6500000000006020830152604082019050919050565b6000610a19602883610be5565b91507f596f75206e65656420746f206465706f73697420736f6d6520616d6f756e742060008301527f6f66206d6f6e65790000000000000000000000000000000000000000000000006020830152604082019050919050565b610a7b81610cc4565b82525050565b6000602082019050610a966000830184610852565b92915050565b60006020820190508181036000830152610ab68184610861565b905092915050565b60006020820190508181036000830152610ad78161089a565b9050919050565b60006020820190508181036000830152610af781610900565b9050919050565b60006020820190508181036000830152610b1781610940565b9050919050565b60006020820190508181036000830152610b37816109a6565b9050919050565b60006020820190508181036000830152610b5781610a0c565b9050919050565b6000602082019050610b736000830184610a72565b92915050565b6000604051905081810181811067ffffffffffffffff82111715610ba057610b9f610da0565b5b8060405250919050565b600067ffffffffffffffff821115610bc557610bc4610da0565b5b601f19601f8301169050602081019050919050565b600081519050919050565b600082825260208201905092915050565b6000610c0182610cc4565b9150610c0c83610cc4565b9250827fffffffffffffffffffffffffffffffffffffffffffffffffffffffffffffffff03821115610c4157610c40610d42565b5b828201905092915050565b6000610c5782610cc4565b9150610c6283610cc4565b925082821015610c7557610c74610d42565b5b828203905092915050565b6000610c8b82610ca4565b9050919050565b6000610c9d82610ca4565b9050919050565b600073ffffffffffffffffffffffffffffffffffffffff82169050919050565b6000819050919050565b82818337600083830152505050565b60005b83811015610cfb578082015181840152602081019050610ce0565b83811115610d0a576000848401525b50505050565b60006002820490506001821680610d2857607f821691505b60208210811415610d3c57610d3b610d71565b5b50919050565b7f4e487b7100000000000000000000000000000000000000000000000000000000600052601160045260246000fd5b7f4e487b7100000000000000000000000000000000000000000000000000000000600052602260045260246000fd5b7f4e487b7100000000000000000000000000000000000000000000000000000000600052604160045260246000fd5b6000601f19601f8301169050919050565b610de981610c80565b8114610df457600080fd5b50565b610e0081610c92565b8114610e0b57600080fd5b50565b610e1781610cc4565b8114610e2257600080fd5b5056fea2646970667358221220c8516dfaa8e81ec92e064be7efcfd312b034d2560034a83cc5d772dc2d8b4b5864736f6c63430008000033",
    "linkReferences": {},
    "deployedLinkReferences": {}
}